:100000000C9435000C945D000C945D000C945D0024
:100010000C945D000C945D000C945D000C945D00EC
:100020000C945D000C945D000C945D000C945D00DC
:100030000C945D000C945D000C945D000C945D00CC
:100040000C94B0000C945D000C945D000C945D0069
:100050000C945D000C945D000C945D000C945D00AC
:100060000C945D000C945D009B0011241FBECFEF2B
:10007000D8E0DEBFCDBF11E0A0E0B1E0EAE7F2E0FA
:1000800002C005900D92A030B107D9F721E0A0E0A1
:10009000B1E001C01D92AC31B207E1F710E0CAE651
:1000A000D0E004C02297FE010E943701C836D10774
:1000B000C9F70E94A1000C943B010C940000CF935F
:1000C000DF93CDB7DEB727970FB6F894DEBF0FBE2C
:1000D000CDBFFC0117821682158214821382128210
:1000E00087E0BE016F5F7F4FDB01982F1D929A95CD
:1000F000E9F78C8380E090E0DB014D91BD019F0129
:10010000280F391FD90118964C9301968730910515
:1001100099F727960FB6F894DEBF0FBECDBFDF91DB
:10012000CF910895FC016083128A118A11820C9488
:100130005F000895089568E680E091E00C949200D5
:1001400008950E94FA000E94A0000E949900C0E059
:10015000D0E00E949A002097E1F30E940000F9CFBE
:100160001F920F920FB60F9211242F933F938F93EC
:100170009F93AF93BF938091140190911501A0912B
:100180001601B09117013091130123E0230F2D3791
:1001900020F40196A11DB11D05C026E8230F02968B
:1001A000A11DB11D2093130180931401909315019B
:1001B000A0931601B0931701809118019091190135
:1001C000A0911A01B0911B010196A11DB11D809350
:1001D000180190931901A0931A01B0931B01BF91CC
:1001E000AF919F918F913F912F910F900FBE0F90E4
:1001F0001F901895789484B5826084BD84B5816021
:1002000084BD85B5826085BD85B5816085BDEEE61E
:10021000F0E0808181608083E1E8F0E010828081FD
:1002200082608083808181608083E0E8F0E080816B
:1002300081608083E1EBF0E0808184608083E0EB8B
:10024000F0E0808181608083EAE7F0E08081846073
:1002500080838081826080838081816080838081CF
:10026000806880831092C1000895EE0FFF1F0590F3
:0A027000F491E02D0994F894FFCFFB
:00000001FF
